S01600004D61686D6F756450726F6A6563742E737265636C
S11300000C942A000C9447000C9447000C9447006D
S11300100C9447000C9447000C9447000C94470040
S11300200C9447000C9447000C9447000C94470030
S11300300C9447000C9447000C9447000C94470020
S11300400C9472000C9447000C9447000C944700E5
S11300500C94470011241FBECFE5D8E0DEBFCDBF0E
S113006011E0A0E6B0E0E2EDF9E002C005900D92E7
S1130070A430B107D9F721E0A4E0B1E001C01D929A
S1130080A430B207E1F70E94D7020C94E7040C9461
S113009000008AB38E7F8ABB8AB38B7F8ABB8AB304
S11300A08F7E8ABB8AB38F7B8ABB86B1876886B909
S11300B080E487B908958770806487B986B18064C5
S11300C086B9349BFECF86B1806186B989EF90E012
S11300D00197F1F700C0000084B195B1FB01918351
S11300E0808308951F920F920FB60F9211248F935D
S11300F09F9384B195B19F918F910F900FBE0F90F4
S11301001F901895FF920F931F93CF93DF93C62FE1
S1130110D72F082FF92E122F41E0672F8C2F0E9422
S11301203C0141E0602F8C2F0E943C0141E06F2D87
S11301308C2F0E943C016D2F8C2F0E94D000111136
S113014009C0602F8C2F0E94D0006F2D8C2F0E942D
S113015004010AC0113041F46F2D8C2F0E94D0008D
S1130160602F8C2F0E940401DF91CF911F910F917A
S1130170FF9008951F93CF93DF93C62F672F182FF7
S1130180D92F8C2F0E940401612F8C2F0E9404010F
S11301906D2F8C2F0E940401DF91CF911F91089540
S11301A081110BC02BB381E090E002C0880F991F2E
S11301B06A95E2F7822B8BBB0895813059F428B3FA
S11301C081E090E002C0880F991F6A95E2F7822BC4
S11301D088BB0895823059F425B381E090E002C0D1
S11301E0880F991F6A95E2F7822B85BB08958330A7
S11301F051F422B381E090E002C0880F991F6A9500
S1130200E2F7822B82BB089581110CC02BB381E0ED
S113021090E002C0880F991F6A95E2F780958223C7
S11302208BBB0895813061F428B381E090E002C073
S1130230880F991F6A95E2F78095822388BB0895F9
S1130240823061F425B381E090E002C0880F991FE9
S11302506A95E2F78095822385BB0895833059F42B
S113026022B381E090E002C0880F991F6A95E2F7FB
S11302708095822382BB089581110AC08AB350E01D
S113028002C0440F551F6A95E2F7482B4ABB0895F4
S1130290813051F487B350E002C0440F551F6A9572
S11302A0E2F7482B47BB0895823051F484B350E001
S11302B002C0440F551F6A95E2F7482B44BB0895CA
S11302C0833049F481B350E002C0440F551F6A954E
S11302D0E2F7482B41BB0895BC0190E000C1E92F2F
S11302E0F0E09F01220F331F220F331FE20FF31F91
S11302F0E60FF71F2081318121113BC0228121119A
S11303001BC08AB341E050E0DA0102C0AA0FBB1F50
S11303103A95E2F79D014A2F409584238ABB838155
S1130320813021F48BB3282B2BBBD8C08111D6C0CC
S11303308BB348234BBBD2C0213009F0CFC08AB362
S113034041E050E0DA0102C0AA0FBB1F3A95E2F780
S11303509D018A2B8ABB8481813021F48BB3282BA5
S11303602BBBBCC08111BAC08BB3209528232BBBF7
S1130370B5C02130D9F5828181111BC087B341E01A
S113038050E0DA0102C0AA0FBB1F3A95E2F79D01C3
S11303904A2F4095842387BB8381813021F488B31D
S11303A0282B28BB9BC0811199C088B3482348BB24
S11303B095C0813009F092C087B341E050E0DA0182
S11303C002C0AA0FBB1F3A95E2F79D018A2B87BB97
S11303D08481813021F488B3282B28BB7FC081110C
S11303E07DC088B32095282328BB78C02230D9F556
S11303F0828181111BC084B341E050E0DA0102C064
S1130400AA0FBB1F3A95E2F79D014A2F409584231A
S113041084BB8381813021F485B3282B25BB5EC046
S113042081115CC085B3482345BB58C0813009F0B5
S113043055C084B341E050E0DA0102C0AA0FBB1FEB
S11304403A95E2F79D018A2B84BB8481813021F4A3
S113045085B3282B25BB42C0811140C085B32095AC
S1130460282325BB3BC02330C9F5828181111BC0E1
S113047081B341E050E0DA0102C0AA0FBB1F3A95F4
S1130480E2F79D014A2F4095842381BB838181300B
S113049021F482B3282B22BB21C081111FC082B357
S11304A0482342BB1BC08130C9F481B341E050E012
S11304B0DA0102C0AA0FBB1F3A95E2F79D018A2B0D
S11304C081BB8481813021F482B3282B22BB06C0F6
S11304D0811104C082B32095282322BB9F5F9032F0
S11304E008F4FDCE089540E064E080E00E943C0101
S11304F00E94490008950F931F93CF93DF9300D078
S1130500CDB7DEB78C011A821982BE016F5F7F4FAF
S113051084E00E945B0089819A81F8019183808341
S11305200F900F90DF91CF911F910F910895DF925B
S1130530EF92FF920F931F93CF93DF9300D0CDB729
S1130540DEB71A82198200E0D12C10E0E12CF12CE4
S113055019C0812F0E9445032FE38DE093E02150C1
S113056080409040E1F700C00000CE0101960E9457
S11305707B0289819A81E816F90610F4D12E7C0158
S1130580135D0F5F043028F38D2D0E9445038FE423
S113059093EC0197F1F700C000000F900F90DF91EA
S11305A0CF911F910F91FF90EF90DF900895CF931B
S11305B0DF9300D000D0CDB7DEB784E690E00E9490
S11305C06C010E9485030E944E030E9473020E94E4
S11305D037031A8219821C821B8281E081110DC0AB
S11305E00E9497022FEF3CE281E391E021503040DA
S11305F080409040D9F700C00000CE0101960E94CF
S113060088038FE493EC0197F1F700C00000CE015A
S113061003960E94510389819A81893C9105E8F0EF
S1130620C0906000D0906100E0906200F0906300A0
S113063020E040E0C701B6010E9482009FE72AE162
S113064036E0915020403040E1F700C00000C7017F
S1130650B6010E94BA0081E0C1CF61E083E00E944C
S1130660040162E083E00E94D00080E0B7CF81B350
S1130670806281BB8FB582688FBD8EB58A618EBD65
S11306808FE19EE497BD86BD08952BE0829FC00153
S1130690112488519C4F9BBD8ABD08950E94490036
S11306A008950F931F93CF93DF9300D0CDB7DEB798
S11306B08C011A821982BE016F5F7F4F82E00E9413
S11306C05B0069817A8180E090E00E94DD0326EF7F
S11306D038E24CE950E40E9443040E94AE039B01BB
S11306E0ADECBCEC0E94D8049695879596958795B9
S11306F0969587959927F801918380830F900F90A1
S1130700DF91CF911F910F9108950E9449000895A0
S11307100F931F93CF93DF9300D0CDB7DEB78C0137
S11307201A82198241E061E083E00E943C0141E0C9
S113073062E083E00E943C01BE016F5F7F4F80E076
S11307400E945B0089819A81F801918380830F90D4
S11307500F90DF91CF911F910F9108950E94220471
S113076088F09F5798F0B92F9927B751B0F0E1F06E
S1130770660F771F881F991F1AF0BA95C9F714C01E
S1130780B13091F00E943C04B1E008950C943C0413
S1130790672F782F8827B85F39F0B93FCCF3869557
S11307A077956795B395D9F73EF4909580957095B4
S11307B061957F4F8F4F9F4F0895E89409C097FB31
S11307C03EF490958095709561957F4F8F4F9F4F24
S11307D09923A9F0F92F96E9BB279395F695879568
S11307E077956795B795F111F8CFFAF4BB0F11F42B
S11307F060FF1BC06F5F7F4F8F4F9F4F16C08823D2
S113080011F096E911C0772321F09EE8872F762F07
S113081005C0662371F096E8862F70E060E02AF048
S11308209A95660F771F881FDAF7880F9695879534
S113083097F9089557FD9058440F551F59F05F3F9D
S113084071F04795880F97FB991F61F09F3F79F0EE
S113085087950895121613061406551FF2CF469570
S1130860F1DF08C0161617061806991FF1CF8695F2
S11308707105610508940895E894BB2766277727D6
S1130880CB0197F908950E9456040C94C7040E9462
S1130890B90438F00E94C00420F0952311F00C94A0
S11308A0B0040C94B60411240C943D040E941A0460
S11308B070F3959FC1F3950F50E0551F629FF001AF
S11308C0729FBB27F00DB11D639FAA27F00DB11DC8
S11308D0AA1F649F6627B00DA11D661F829F222751
S11308E0B00DA11D621F739FB00DA11D621F839FD8
S11308F0A00D611D221F749F3327A00D611D231FAE
S1130900849F600D211D822F762F6A2F11249F57FB
S113091050409AF0F1F088234AF0EE0FFF1FBB1FFE
S1130920661F771F881F91505040A9F79E3F5105BD
S113093080F00C94B0040C943D045F3FE4F3983EC3
S1130940D4F3869577956795B795F795E7959F5F67
S1130950C1F7FE2B880F911D9695879597F90895F9
S113096097F99F6780E870E060E008959FEF80EC5E
S1130970089500240A941616170618060906089501
S113098000240A9412161306140605060895092E67
S11309900394000C11F4882352F0BB0F40F4BF2BD6
S11309A011F460FF04C06F5F7F4F8F4F9F4F089516
S11309B0A29FB001B39FC001A39F700D811D11249C
S11309C0911DB29F700D811D1124911D0895F894FD
S10509D0FFCF53
S11309D201050607000000010000010101000002F8
S11309E201010000030101000004010100000501EE
S11309F201000006010100000701010001000101DC
S1130A0200010101010001020101000103010100D1
S1130A1201040101000105010100010601010001B7
S1130A2207010100020001010002010101000202AA
S1130A320101000203010100020401010002050197
S1130A420100020601010002070101000300010185
S1130A52000301010100030201010003030101007B
S1130A62030401010003050101000306010100035F
S1070A720701010073
S9030000FC
