:100000000C942A000C943F000C943F000C943F0089
:100010000C943F000C943F000C943F000C943F0064
:100020000C943F000C943F000C943F000C943F0054
:100030000C943F000C943F000C943F000C943F0044
:100040000C943F000C943F000C943F000C943F0034
:100050000C943F0011241FBECFE5D8E0DEBFCDBF1A
:1000600011E0A0E6B0E0E0EEF4E002C005900D92F1
:10007000A430B107D9F70E9432020C946E020C949E
:100080000000FF920F931F93CF93DF93C62FD72FBC
:10009000082FF92E122F41E0672F8C2F0E94FB00B2
:1000A00041E0602F8C2F0E94FB0041E06F2D8C2FD0
:1000B0000E94FB006D2F8C2F0E948F00111109C030
:1000C000602F8C2F0E948F006F2D8C2F0E94C300F9
:1000D0000AC0113041F46F2D8C2F0E948F00602FC9
:1000E0008C2F0E94C300DF91CF911F910F91FF9041
:1000F00008951F93CF93DF93C62F672F182FD92F03
:100100008C2F0E94C300612F8C2F0E94C3006D2F83
:100110008C2F0E94C300DF91CF911F910895811110
:100120000BC02BB381E090E002C0880F991F6A9545
:10013000E2F7822B8BBB0895813059F428B381E01C
:1001400090E002C0880F991F6A95E2F7822B88BB66
:100150000895823059F425B381E090E002C0880F01
:10016000991F6A95E2F7822B85BB0895833051F47D
:1001700022B381E090E002C0880F991F6A95E2F7F0
:10018000822B82BB089581110CC02BB381E090E0DB
:1001900002C0880F991F6A95E2F7809582238BBB76
:1001A0000895813061F428B381E090E002C0880FA7
:1001B000991F6A95E2F78095822388BB0895823063
:1001C00061F425B381E090E002C0880F991F6A9521
:1001D000E2F78095822385BB0895833059F422B3DA
:1001E00081E090E002C0880F991F6A95E2F7809540
:1001F000822382BB089581110AC08AB350E002C0F5
:10020000440F551F6A95E2F7482B4ABB0895813089
:1002100051F487B350E002C0440F551F6A95E2F7CE
:10022000482B47BB0895823051F484B350E002C09C
:10023000440F551F6A95E2F7482B44BB089583305D
:1002400049F481B350E002C0440F551F6A95E2F7AC
:10025000482B41BB0895BC0190E000C1E92FF0E0BC
:100260009F01220F331F220F331FE20FF31FE60FF0
:10027000F71F2081318121113BC0228121111BC038
:100280008AB341E050E0DA0102C0AA0FBB1F3A95E1
:10029000E2F79D014A2F409584238ABB83818130F8
:1002A00021F48BB3282B2BBBD8C08111D6C08BB3C4
:1002B00048234BBBD2C0213009F0CFC08AB341E004
:1002C00050E0DA0102C0AA0FBB1F3A95E2F79D0188
:1002D0008A2B8ABB8481813021F48BB3282B2BBBE2
:1002E000BCC08111BAC08BB3209528232BBBB5C0ED
:1002F0002130D9F5828181111BC087B341E050E0E4
:10030000DA0102C0AA0FBB1F3A95E2F79D014A2FFE
:100310004095842387BB8381813021F488B3282BC7
:1003200028BB9BC0811199C088B3482348BB95C0A6
:10033000813009F092C087B341E050E0DA0102C099
:10034000AA0FBB1F3A95E2F79D018A2B87BB8481D8
:10035000813021F488B3282B28BB7FC081117DC058
:1003600088B32095282328BB78C02230D9F5828114
:1003700081111BC084B341E050E0DA0102C0AA0F32
:10038000BB1F3A95E2F79D014A2F4095842384BB19
:100390008381813021F485B3282B25BB5EC0811178
:1003A0005CC085B3482345BB58C0813009F055C0B7
:1003B00084B341E050E0DA0102C0AA0FBB1F3A95B6
:1003C000E2F79D018A2B84BB8481813021F485B3BF
:1003D000282B25BB42C0811140C085B3209528231E
:1003E00025BB3BC02330C9F5828181111BC081B37D
:1003F00041E050E0DA0102C0AA0FBB1F3A95E2F7D4
:100400009D014A2F4095842381BB8381813021F453
:1004100082B3282B22BB21C081111FC082B3482385
:1004200042BB1BC08130C9F481B341E050E0DA0126
:1004300002C0AA0FBB1F3A95E2F79D018A2B81BB30
:100440008481813021F482B3282B22BB06C0811124
:1004500004C082B32095282322BB9F5F903208F40A
:10046000FDCE089584E690E00E942B01C0906000CC
:10047000D0906100E0906200F090630020E040E0E6
:10048000C701B6010E9441002AEA36EE86E991E0F2
:100490002150304080409040D9F70000C701B6019C
:1004A0000E9479002AEA36EE86E991E02150304038
:1004B00080409040D9F7000021E040E0C701B6013C
:1004C0000E9441002FEF33EB84EC94E02150304048
:1004D00080409040D9F700C00000C8CFF894FFCF0B
:1004E00001050607000000010000010101000002F3
:1004F00001010000030101000004010100000501E9
:1005000001000006010100000701010001000101D6
:1005100000010101010001020101000103010100CC
:1005200001040101000105010100010601010001B2
:1005300007010100020001010002010101000202A5
:100540000101000203010100020401010002050192
:100550000100020601010002070101000300010180
:100560000003010101000302010100030301010076
:10057000030401010003050101000306010100035A
:04058000070101006E
:00000001FF
